:020000020000FC
:1000000019C018951895189518951895189518955C
:100010001895189518951895189518951895189578
:100020001895189518951895189518951895189568
:100030001895189502E00EBF0FEF0DBF00E005B94F
:1000400000E008B900E00BB90FEF04B90FE307B9FE
:100050000FEF0AB9FFCF0F930F7F15B11F70012B60
:1000600005B922D00F9102950F7F15B11F70012B9A
:1000700005B91AD008952998EEDF0895299AEBDF83
:10008000089526D000E205B929980ED013D008E2D1
:10009000F2DF10D00FE0EFDF0DD001E0ECDF10D089
:1000A00004E1E9DF0DD00895289A00000000000067
:1000B000289808951F9315E81A95F1F71F91089550
:1000C000BF93AF93B0E0A0E20BD0AF91BF91089582
:1000D000BF93AF93B1E0A0E903D0AF91BF91089572
:0C00E000E9DFAA95E8F7BA95D8F7089573
:00000001FF
