:020000020000FC
:1000000019C018951895189518951895189518955C
:100010001895189518951895189518951895189578
:100020001895189518951895189518951895189568
:100030001895189502E00EBF0FEF0DBF00E005B94F
:1000400000E008B900E00BB90FEF04B90FE307B9FE
:100050000FEF0AB926D018D000E214D009E310E35C
:10006000A0E0B1E071D00E910F70005D0BD00E9149
:100070000F70005D07D00E910F70005D03D0FFCFB1
:10008000299833C0299A31C000E8FACF00ECF8CFA4
:10009000000F000F000F0F730064F2CF05B929980D
:1000A0001EC04AD000E3FADFB0E0A2E337D000E39D
:1000B000F5DFB0E0A3E032D000E3F0DF27D000E2CC
:1000C000EDDF24D008E2DCDF08E0DADF01E0D8DF92
:1000D0002BD006E0D5DF28D00CE0D2DF0895289A97
:1000E000000000000000289808950F93007F25B1BC
:1000F0002F70022B05B9F3DF0F910295007F25B118
:100100002F70022B05B9EBDF01D008952F932EE954
:10011000000000002A95E1F72F910895A150B0400A
:1001200010F0F4DFFBCF0895BF93AF93B0E0A0E1F0
:10013000F5DFAF91BF910895BF93AF93B0E0A8EC06
:10014000EDDFAF91BF9108952F923F924F923FEF15
:10015000432E439400511742E0F7005F184D20EF03
:10016000205F085E1340E0F708511C4F332E339494
:1001700004561040E0F70C59322A20EF205F0A5055
:10018000E8F7065F222E202A2D923D924D924F9045
:060190003F902F9008953E
:00000001FF
